{
  "contractName": "JobPost",
  "abi": [
    {
      "inputs": [],
      "stateMutability": "nonpayable",
      "type": "constructor"
    },
    {
      "inputs": [],
      "name": "jobCounter",
      "outputs": [
        {
          "internalType": "uint256",
          "name": "",
          "type": "uint256"
        }
      ],
      "stateMutability": "view",
      "type": "function"
    },
    {
      "inputs": [
        {
          "internalType": "string",
          "name": "_jobTitle",
          "type": "string"
        },
        {
          "internalType": "string",
          "name": "_paymentMethod",
          "type": "string"
        }
      ],
      "name": "newJobPostByAccount",
      "outputs": [],
      "stateMutability": "nonpayable",
      "type": "function"
    },
    {
      "inputs": [
        {
          "internalType": "address",
          "name": "_account",
          "type": "address"
        },
        {
          "internalType": "uint256",
          "name": "_jobId",
          "type": "uint256"
        }
      ],
      "name": "getOneJobPostByAccount2",
      "outputs": [
        {
          "internalType": "address",
          "name": "account",
          "type": "address"
        },
        {
          "internalType": "uint256",
          "name": "jobId",
          "type": "uint256"
        },
        {
          "internalType": "string",
          "name": "jobTitle",
          "type": "string"
        },
        {
          "internalType": "string",
          "name": "paymentMethod",
          "type": "string"
        }
      ],
      "stateMutability": "view",
      "type": "function"
    },
    {
      "inputs": [
        {
          "internalType": "address",
          "name": "_account",
          "type": "address"
        },
        {
          "internalType": "uint256",
          "name": "_jobId",
          "type": "uint256"
        }
      ],
      "name": "getOneJobPostByAccount",
      "outputs": [
        {
          "components": [
            {
              "internalType": "uint256",
              "name": "jobId",
              "type": "uint256"
            },
            {
              "internalType": "string",
              "name": "jobTitle",
              "type": "string"
            },
            {
              "internalType": "string",
              "name": "paymentMethod",
              "type": "string"
            },
            {
              "internalType": "address",
              "name": "account",
              "type": "address"
            }
          ],
          "internalType": "struct JobPost.Job",
          "name": "job",
          "type": "tuple"
        }
      ],
      "stateMutability": "view",
      "type": "function"
    },
    {
      "inputs": [
        {
          "internalType": "uint256",
          "name": "_jobId",
          "type": "uint256"
        },
        {
          "internalType": "string",
          "name": "_jobTitle",
          "type": "string"
        },
        {
          "internalType": "string",
          "name": "_paymentMethod",
          "type": "string"
        },
        {
          "internalType": "address",
          "name": "_account",
          "type": "address"
        }
      ],
      "name": "updateJobPostByAccount",
      "outputs": [],
      "stateMutability": "nonpayable",
      "type": "function"
    },
    {
      "inputs": [],
      "name": "getAllJobsByAccount",
      "outputs": [
        {
          "components": [
            {
              "internalType": "uint256",
              "name": "jobId",
              "type": "uint256"
            },
            {
              "internalType": "string",
              "name": "jobTitle",
              "type": "string"
            },
            {
              "internalType": "string",
              "name": "paymentMethod",
              "type": "string"
            },
            {
              "internalType": "address",
              "name": "account",
              "type": "address"
            }
          ],
          "internalType": "struct JobPost.Job[]",
          "name": "",
          "type": "tuple[]"
        }
      ],
      "stateMutability": "view",
      "type": "function"
    }
  ],
  "bytecode": "0x6080604052600060015534801561001557600080fd5b506114b3806100256000396000f3fe608060405234801561001057600080fd5b50600436106100625760003560e01c806339da6bfe1461006757806350355d761461008357806355d469fe146100a15780636a24f23a146100bf578063ae7ea44a146100db578063df794d561461010b575b600080fd5b610081600480360381019061007c9190610e5e565b61013e565b005b61008b610301565b6040516100989190610f0c565b60405180910390f35b6100a9610307565b6040516100b691906110f9565b60405180910390f35b6100d960048036038101906100d4919061111b565b610573565b005b6100f560048036038101906100f09190611193565b6106bc565b604051610102919061123d565b60405180910390f35b61012560048036038101906101209190611193565b610915565b60405161013594939291906112b8565b60405180910390f35b60008060008373ffffffffffffffffffffffffffffffffffffffff1673ffffffffffffffffffffffffffffffffffffffff168152602001908152602001600020905060015485111561018f57600080fd5b60008180549050116101d6576040517f08c379a00000000000000000000000000000000000000000000000000000000081526004016101cd90611357565b60405180910390fd5b60005b81805490508110156102f957858282815481106101f9576101f8611377565b5b906000526020600020906004020160000154036102e6578482828154811061022457610223611377565b5b90600052602060002090600402016001019080519060200190610248929190610b8f565b508382828154811061025d5761025c611377565b5b90600052602060002090600402016002019080519060200190610281929190610b8f565b508282828154811061029657610295611377565b5b906000526020600020906004020160030160006101000a81548173ffffffffffffffffffffffffffffffffffffffff021916908373ffffffffffffffffffffffffffffffffffffffff1602179055505b80806102f1906113d5565b9150506101d9565b505050505050565b60015481565b606060008060003373ffffffffffffffffffffffffffffffffffffffff1673ffffffffffffffffffffffffffffffffffffffff16815260200190815260200160002090506000818054905011610392576040517f08c379a000000000000000000000000000000000000000000000000000000000815260040161038990611357565b60405180910390fd5b80805480602002602001604051908101604052809291908181526020016000905b828210156105695783829060005260206000209060040201604051806080016040529081600082015481526020016001820180546103f09061144c565b80601f016020809104026020016040519081016040528092919081815260200182805461041c9061144c565b80156104695780601f1061043e57610100808354040283529160200191610469565b820191906000526020600020905b81548152906001019060200180831161044c57829003601f168201915b505050505081526020016002820180546104829061144c565b80601f01602080910402602001604051908101604052809291908181526020018280546104ae9061144c565b80156104fb5780601f106104d0576101008083540402835291602001916104fb565b820191906000526020600020905b8154815290600101906020018083116104de57829003601f168201915b505050505081526020016003820160009054906101000a900473ffffffffffffffffffffffffffffffffffffffff1673ffffffffffffffffffffffffffffffffffffffff1673ffffffffffffffffffffffffffffffffffffffff1681525050815260200190600101906103b3565b5050505091505090565b60016000815480929190610586906113d5565b91905055506000803373ffffffffffffffffffffffffffffffffffffffff1673ffffffffffffffffffffffffffffffffffffffff168152602001908152602001600020604051806080016040528060015481526020018481526020018381526020013373ffffffffffffffffffffffffffffffffffffffff168152509080600181540180825580915050600190039060005260206000209060040201600090919091909150600082015181600001556020820151816001019080519060200190610651929190610b8f565b50604082015181600201908051906020019061066e929190610b8f565b5060608201518160030160006101000a81548173ffffffffffffffffffffffffffffffffffffffff021916908373ffffffffffffffffffffffffffffffffffffffff16021790555050505050565b6106c4610c15565b60008060008573ffffffffffffffffffffffffffffffffffffffff1673ffffffffffffffffffffffffffffffffffffffff168152602001908152602001600020905060005b818054905081101561090c578382828154811061072957610728611377565b5b906000526020600020906004020160000154036108f95781818154811061075357610752611377565b5b9060005260206000209060040201604051806080016040529081600082015481526020016001820180546107869061144c565b80601f01602080910402602001604051908101604052809291908181526020018280546107b29061144c565b80156107ff5780601f106107d4576101008083540402835291602001916107ff565b820191906000526020600020905b8154815290600101906020018083116107e257829003601f168201915b505050505081526020016002820180546108189061144c565b80601f01602080910402602001604051908101604052809291908181526020018280546108449061144c565b80156108915780601f1061086657610100808354040283529160200191610891565b820191906000526020600020905b81548152906001019060200180831161087457829003601f168201915b505050505081526020016003820160009054906101000a900473ffffffffffffffffffffffffffffffffffffffff1673ffffffffffffffffffffffffffffffffffffffff1673ffffffffffffffffffffffffffffffffffffffff16815250509250505061090f565b8080610904906113d5565b915050610709565b50505b92915050565b60008060608060008060008873ffffffffffffffffffffffffffffffffffffffff1673ffffffffffffffffffffffffffffffffffffffff168152602001908152602001600020905060005b8180549050811015610b8357868282815481106109805761097f611377565b5b90600052602060002090600402016000015403610b70578181815481106109aa576109a9611377565b5b906000526020600020906004020160030160009054906101000a900473ffffffffffffffffffffffffffffffffffffffff168282815481106109ef576109ee611377565b5b906000526020600020906004020160000154838381548110610a1457610a13611377565b5b9060005260206000209060040201600101848481548110610a3857610a37611377565b5b9060005260206000209060040201600201818054610a559061144c565b80601f0160208091040260200160405190810160405280929190818152602001828054610a819061144c565b8015610ace5780601f10610aa357610100808354040283529160200191610ace565b820191906000526020600020905b815481529060010190602001808311610ab157829003601f168201915b50505050509150808054610ae19061144c565b80601f0160208091040260200160405190810160405280929190818152602001828054610b0d9061144c565b8015610b5a5780601f10610b2f57610100808354040283529160200191610b5a565b820191906000526020600020905b815481529060010190602001808311610b3d57829003601f168201915b5050505050905095509550955095505050610b86565b8080610b7b906113d5565b915050610960565b50505b92959194509250565b828054610b9b9061144c565b90600052602060002090601f016020900481019282610bbd5760008555610c04565b82601f10610bd657805160ff1916838001178555610c04565b82800160010185558215610c04579182015b82811115610c03578251825591602001919060010190610be8565b5b509050610c119190610c53565b5090565b6040518060800160405280600081526020016060815260200160608152602001600073ffffffffffffffffffffffffffffffffffffffff1681525090565b5b80821115610c6c576000816000905550600101610c54565b5090565b6000604051905090565b600080fd5b600080fd5b6000819050919050565b610c9781610c84565b8114610ca257600080fd5b50565b600081359050610cb481610c8e565b92915050565b600080fd5b600080fd5b6000601f19601f8301169050919050565b7f4e487b7100000000000000000000000000000000000000000000000000000000600052604160045260246000fd5b610d0d82610cc4565b810181811067ffffffffffffffff82111715610d2c57610d2b610cd5565b5b80604052505050565b6000610d3f610c70565b9050610d4b8282610d04565b919050565b600067ffffffffffffffff821115610d6b57610d6a610cd5565b5b610d7482610cc4565b9050602081019050919050565b82818337600083830152505050565b6000610da3610d9e84610d50565b610d35565b905082815260208101848484011115610dbf57610dbe610cbf565b5b610dca848285610d81565b509392505050565b600082601f830112610de757610de6610cba565b5b8135610df7848260208601610d90565b91505092915050565b600073ffffffffffffffffffffffffffffffffffffffff82169050919050565b6000610e2b82610e00565b9050919050565b610e3b81610e20565b8114610e4657600080fd5b50565b600081359050610e5881610e32565b92915050565b60008060008060808587031215610e7857610e77610c7a565b5b6000610e8687828801610ca5565b945050602085013567ffffffffffffffff811115610ea757610ea6610c7f565b5b610eb387828801610dd2565b935050604085013567ffffffffffffffff811115610ed457610ed3610c7f565b5b610ee087828801610dd2565b9250506060610ef187828801610e49565b91505092959194509250565b610f0681610c84565b82525050565b6000602082019050610f216000830184610efd565b92915050565b600081519050919050565b600082825260208201905092915050565b6000819050602082019050919050565b610f5c81610c84565b82525050565b600081519050919050565b600082825260208201905092915050565b60005b83811015610f9c578082015181840152602081019050610f81565b83811115610fab576000848401525b50505050565b6000610fbc82610f62565b610fc68185610f6d565b9350610fd6818560208601610f7e565b610fdf81610cc4565b840191505092915050565b610ff381610e20565b82525050565b60006080830160008301516110116000860182610f53565b50602083015184820360208601526110298282610fb1565b915050604083015184820360408601526110438282610fb1565b91505060608301516110586060860182610fea565b508091505092915050565b600061106f8383610ff9565b905092915050565b6000602082019050919050565b600061108f82610f27565b6110998185610f32565b9350836020820285016110ab85610f43565b8060005b858110156110e757848403895281516110c88582611063565b94506110d383611077565b925060208a019950506001810190506110af565b50829750879550505050505092915050565b600060208201905081810360008301526111138184611084565b905092915050565b6000806040838503121561113257611131610c7a565b5b600083013567ffffffffffffffff8111156111505761114f610c7f565b5b61115c85828601610dd2565b925050602083013567ffffffffffffffff81111561117d5761117c610c7f565b5b61118985828601610dd2565b9150509250929050565b600080604083850312156111aa576111a9610c7a565b5b60006111b885828601610e49565b92505060206111c985828601610ca5565b9150509250929050565b60006080830160008301516111eb6000860182610f53565b50602083015184820360208601526112038282610fb1565b9150506040830151848203604086015261121d8282610fb1565b91505060608301516112326060860182610fea565b508091505092915050565b6000602082019050818103600083015261125781846111d3565b905092915050565b61126881610e20565b82525050565b600082825260208201905092915050565b600061128a82610f62565b611294818561126e565b93506112a4818560208601610f7e565b6112ad81610cc4565b840191505092915050565b60006080820190506112cd600083018761125f565b6112da6020830186610efd565b81810360408301526112ec818561127f565b90508181036060830152611300818461127f565b905095945050505050565b7f4e6f204a6f6220706f73742065786973747320666f7220746869732075736572600082015250565b600061134160208361126e565b915061134c8261130b565b602082019050919050565b6000602082019050818103600083015261137081611334565b9050919050565b7f4e487b7100000000000000000000000000000000000000000000000000000000600052603260045260246000fd5b7f4e487b7100000000000000000000000000000000000000000000000000000000600052601160045260246000fd5b60006113e082610c84565b91507fffffffffffffffffffffffffffffffffffffffffffffffffffffffffffffffff8203611412576114116113a6565b5b600182019050919050565b7f4e487b7100000000000000000000000000000000000000000000000000000000600052602260045260246000fd5b6000600282049050600182168061146457607f821691505b6020821081036114775761147661141d565b5b5091905056fea264697066735822122046f8f275112c66da3a61d135d7d0d6b478740a556fff0681e540737811e600fd64736f6c634300080d0033",
  "immutableReferences": {},
  "source": "// SPDX-License-Identifier: MIT\npragma solidity >=0.4.22 <0.9.0;\n\npragma experimental ABIEncoderV2;\n\ncontract JobPost {\n  struct Job{\n    uint256 jobId;\n    string jobTitle;\n    string paymentMethod;\n    address account;\n  }\n\n  enum paymentMethods{ CASH, DEBIT, CREDIT, CRYPTO }\n\n  // mapping(uint => Job) JobsByIndex;\n  mapping(address => Job[]) JobsByAccount;\n  uint256 public jobCounter = 0;\n\n  constructor() {\n  }\n\n  // function newJobPost(string memory _jobTitle, string memory _paymentMethod, address _account) public{\n  //   jobCounter++;\n  //   JobsByIndex[jobCounter] = Job(jobCounter, _jobTitle, _paymentMethod, _account);\n  // }\n  function newJobPostByAccount(string memory _jobTitle, string memory _paymentMethod) public{\n    jobCounter++;\n    JobsByAccount[msg.sender].push(Job(jobCounter, _jobTitle, _paymentMethod, msg.sender));\n  }\n\n  // function getOneJobPost(uint256 _jobId) public view returns (uint256 jobId,string memory jobTitle,string memory paymentMethod,address account){\n  //   require(_jobId <= jobCounter);\n  //   return (JobsByIndex[_jobId].jobId, JobsByIndex[_jobId].jobTitle, JobsByIndex[_jobId].paymentMethod, JobsByIndex[_jobId].account);\n  // }\n\n  function getOneJobPostByAccount2(address _account, uint256 _jobId) public view returns (address account, uint256 jobId,string memory jobTitle,string memory paymentMethod){\n    // require(_account <= jobCounter);\n    Job[] storage jobs = JobsByAccount[_account];\n    for (uint index = 0; index < jobs.length; index++) {\n      if (jobs[index].jobId == _jobId) {\n        return (jobs[index].account, jobs[index].jobId, jobs[index].jobTitle, jobs[index].paymentMethod);\n      }\n    }\n    // return (0,\"\",\"\",0x0);\n  }\n  function getOneJobPostByAccount(address _account, uint256 _jobId) public view returns (Job memory job){\n    // require(_account <= jobCounter);\n    Job[] storage jobs = JobsByAccount[_account];\n    for (uint index = 0; index < jobs.length; index++) {\n      if (jobs[index].jobId == _jobId) {\n        return (jobs[index]);\n      }\n    }\n    // return (0,\"\",\"\",0x0);\n  }\n\n  // function updateJobPost(uint256 _jobId, string memory _jobTitle, string memory _paymentMethod, address _account) public{\n  //   require(_jobId <= jobCounter);\n  //   require(JobsByIndex[_jobId].account == msg.sender, \"Not original author\");\n  //   JobsByIndex[_jobId].jobTitle = _jobTitle;\n  //   JobsByIndex[_jobId].paymentMethod = _paymentMethod;\n  //   JobsByIndex[_jobId].account = _account;\n  // }\n\n  function updateJobPostByAccount(uint256 _jobId, string memory _jobTitle, string memory _paymentMethod, address _account) public{\n    Job[] storage jobs = JobsByAccount[_account];\n    require(_jobId <= jobCounter);\n    // require(jobs, \"This user does not exist\");\n    require(jobs.length > 0, \"No Job post exists for this user\");\n    for (uint i = 0; i < jobs.length; i++) {\n      if (jobs[i].jobId == _jobId) {\n        jobs[i].jobTitle = _jobTitle;\n        jobs[i].paymentMethod = _paymentMethod;\n        jobs[i].account = _account;\n      }\n    }\n  }\n\n  function getAllJobsByAccount() public view returns (Job[] memory){\n    Job[] storage jobs = JobsByAccount[msg.sender];\n    require(jobs.length > 0, \"No Job post exists for this user\");\n    return jobs;\n  }\n}\n",
  "sourcePath": "/Users/promid2015/Desktop/Code/Business/Hedera-Project/contracts/JobPost.sol",
  "compiler": {
    "name": "solc",
    "version": "0.8.13+commit.abaa5c0e.Emscripten.clang"
  },
  "schemaVersion": "3.4.7",
  "updatedAt": "2022-05-16T15:25:18.184Z",
  "devdoc": {
    "kind": "dev",
    "methods": {},
    "version": 1
  },
  "userdoc": {
    "kind": "user",
    "methods": {},
    "version": 1
  }
}